{
  "_format": "hh-sol-artifact-1",
  "contractName": "AgentStorage",
  "sourceName": "contracts/storage/AgentStorage.sol",
  "abi": [
    {
      "inputs": [],
      "stateMutability": "nonpayable",
      "type": "constructor"
    },
    {
      "anonymous": false,
      "inputs": [
        {
          "indexed": true,
          "internalType": "address",
          "name": "previousOwner",
          "type": "address"
        },
        {
          "indexed": true,
          "internalType": "address",
          "name": "newOwner",
          "type": "address"
        }
      ],
      "name": "OwnershipTransferred",
      "type": "event"
    },
    {
      "inputs": [
        {
          "internalType": "uint256",
          "name": "",
          "type": "uint256"
        }
      ],
      "name": "agentCores",
      "outputs": [
        {
          "internalType": "string",
          "name": "name",
          "type": "string"
        },
        {
          "internalType": "string",
          "name": "description",
          "type": "string"
        },
        {
          "internalType": "string",
          "name": "lighthouseHash",
          "type": "string"
        },
        {
          "internalType": "string",
          "name": "agentType",
          "type": "string"
        },
        {
          "internalType": "address",
          "name": "creator",
          "type": "address"
        },
        {
          "internalType": "uint256",
          "name": "createdAt",
          "type": "uint256"
        }
      ],
      "stateMutability": "view",
      "type": "function"
    },
    {
      "inputs": [
        {
          "internalType": "uint256",
          "name": "",
          "type": "uint256"
        }
      ],
      "name": "agentMetrics",
      "outputs": [
        {
          "internalType": "uint256",
          "name": "datasetSize",
          "type": "uint256"
        },
        {
          "internalType": "uint256",
          "name": "trainingEpochs",
          "type": "uint256"
        },
        {
          "internalType": "uint256",
          "name": "accuracy",
          "type": "uint256"
        }
      ],
      "stateMutability": "view",
      "type": "function"
    },
    {
      "inputs": [
        {
          "internalType": "uint256",
          "name": "",
          "type": "uint256"
        }
      ],
      "name": "agentMinting",
      "outputs": [
        {
          "internalType": "uint256",
          "name": "maxSupply",
          "type": "uint256"
        },
        {
          "internalType": "uint256",
          "name": "currentSupply",
          "type": "uint256"
        },
        {
          "internalType": "uint256",
          "name": "mintPrice",
          "type": "uint256"
        },
        {
          "internalType": "bool",
          "name": "isActive",
          "type": "bool"
        },
        {
          "internalType": "bool",
          "name": "allowPublicMint",
          "type": "bool"
        }
      ],
      "stateMutability": "view",
      "type": "function"
    },
    {
      "inputs": [
        {
          "internalType": "uint256",
          "name": "",
          "type": "uint256"
        },
        {
          "internalType": "uint256",
          "name": "",
          "type": "uint256"
        }
      ],
      "name": "agentTags",
      "outputs": [
        {
          "internalType": "string",
          "name": "",
          "type": "string"
        }
      ],
      "stateMutability": "view",
      "type": "function"
    },
    {
      "inputs": [
        {
          "internalType": "address",
          "name": "",
          "type": "address"
        },
        {
          "internalType": "uint256",
          "name": "",
          "type": "uint256"
        }
      ],
      "name": "creatorAgents",
      "outputs": [
        {
          "internalType": "uint256",
          "name": "",
          "type": "uint256"
        }
      ],
      "stateMutability": "view",
      "type": "function"
    },
    {
      "inputs": [
        {
          "internalType": "uint256",
          "name": "tokenId",
          "type": "uint256"
        }
      ],
      "name": "getAgentData",
      "outputs": [
        {
          "components": [
            {
              "internalType": "string",
              "name": "name",
              "type": "string"
            },
            {
              "internalType": "string",
              "name": "description",
              "type": "string"
            },
            {
              "internalType": "string",
              "name": "lighthouseHash",
              "type": "string"
            },
            {
              "internalType": "string",
              "name": "agentType",
              "type": "string"
            },
            {
              "internalType": "address",
              "name": "creator",
              "type": "address"
            },
            {
              "internalType": "uint256",
              "name": "createdAt",
              "type": "uint256"
            }
          ],
          "internalType": "struct AgentDataLib.AgentCore",
          "name": "core",
          "type": "tuple"
        },
        {
          "components": [
            {
              "internalType": "uint256",
              "name": "datasetSize",
              "type": "uint256"
            },
            {
              "internalType": "uint256",
              "name": "trainingEpochs",
              "type": "uint256"
            },
            {
              "internalType": "uint256",
              "name": "accuracy",
              "type": "uint256"
            }
          ],
          "internalType": "struct AgentDataLib.AgentMetrics",
          "name": "metrics",
          "type": "tuple"
        },
        {
          "components": [
            {
              "internalType": "uint256",
              "name": "maxSupply",
              "type": "uint256"
            },
            {
              "internalType": "uint256",
              "name": "currentSupply",
              "type": "uint256"
            },
            {
              "internalType": "uint256",
              "name": "mintPrice",
              "type": "uint256"
            },
            {
              "internalType": "bool",
              "name": "isActive",
              "type": "bool"
            },
            {
              "internalType": "bool",
              "name": "allowPublicMint",
              "type": "bool"
            }
          ],
          "internalType": "struct AgentDataLib.AgentMinting",
          "name": "minting",
          "type": "tuple"
        }
      ],
      "stateMutability": "view",
      "type": "function"
    },
    {
      "inputs": [
        {
          "internalType": "address",
          "name": "creator",
          "type": "address"
        }
      ],
      "name": "getCreatorAgents",
      "outputs": [
        {
          "internalType": "uint256[]",
          "name": "",
          "type": "uint256[]"
        }
      ],
      "stateMutability": "view",
      "type": "function"
    },
    {
      "inputs": [
        {
          "internalType": "uint256",
          "name": "tokenId",
          "type": "uint256"
        }
      ],
      "name": "getTags",
      "outputs": [
        {
          "internalType": "string[]",
          "name": "",
          "type": "string[]"
        }
      ],
      "stateMutability": "view",
      "type": "function"
    },
    {
      "inputs": [
        {
          "internalType": "string",
          "name": "",
          "type": "string"
        }
      ],
      "name": "hashToTokenId",
      "outputs": [
        {
          "internalType": "uint256",
          "name": "",
          "type": "uint256"
        }
      ],
      "stateMutability": "view",
      "type": "function"
    },
    {
      "inputs": [
        {
          "internalType": "string",
          "name": "hash",
          "type": "string"
        }
      ],
      "name": "isHashUsed",
      "outputs": [
        {
          "internalType": "bool",
          "name": "",
          "type": "bool"
        }
      ],
      "stateMutability": "view",
      "type": "function"
    },
    {
      "inputs": [],
      "name": "mainContract",
      "outputs": [
        {
          "internalType": "address",
          "name": "",
          "type": "address"
        }
      ],
      "stateMutability": "view",
      "type": "function"
    },
    {
      "inputs": [],
      "name": "owner",
      "outputs": [
        {
          "internalType": "address",
          "name": "",
          "type": "address"
        }
      ],
      "stateMutability": "view",
      "type": "function"
    },
    {
      "inputs": [],
      "name": "renounceOwnership",
      "outputs": [],
      "stateMutability": "nonpayable",
      "type": "function"
    },
    {
      "inputs": [
        {
          "internalType": "address",
          "name": "_mainContract",
          "type": "address"
        }
      ],
      "name": "setMainContract",
      "outputs": [],
      "stateMutability": "nonpayable",
      "type": "function"
    },
    {
      "inputs": [
        {
          "internalType": "uint256",
          "name": "tokenId",
          "type": "uint256"
        },
        {
          "internalType": "string[]",
          "name": "tags",
          "type": "string[]"
        }
      ],
      "name": "setTags",
      "outputs": [],
      "stateMutability": "nonpayable",
      "type": "function"
    },
    {
      "inputs": [
        {
          "internalType": "uint256",
          "name": "tokenId",
          "type": "uint256"
        },
        {
          "components": [
            {
              "internalType": "string",
              "name": "name",
              "type": "string"
            },
            {
              "internalType": "string",
              "name": "description",
              "type": "string"
            },
            {
              "internalType": "string",
              "name": "lighthouseHash",
              "type": "string"
            },
            {
              "internalType": "string",
              "name": "agentType",
              "type": "string"
            },
            {
              "internalType": "uint256",
              "name": "datasetSize",
              "type": "uint256"
            },
            {
              "internalType": "uint256",
              "name": "trainingEpochs",
              "type": "uint256"
            },
            {
              "internalType": "uint256",
              "name": "accuracy",
              "type": "uint256"
            },
            {
              "internalType": "uint256",
              "name": "maxSupply",
              "type": "uint256"
            },
            {
              "internalType": "uint256",
              "name": "mintPrice",
              "type": "uint256"
            },
            {
              "internalType": "bool",
              "name": "allowPublicMint",
              "type": "bool"
            }
          ],
          "internalType": "struct AgentDataLib.AgentParams",
          "name": "params",
          "type": "tuple"
        },
        {
          "internalType": "uint256",
          "name": "initialSupply",
          "type": "uint256"
        }
      ],
      "name": "storeAgent",
      "outputs": [],
      "stateMutability": "nonpayable",
      "type": "function"
    },
    {
      "inputs": [
        {
          "internalType": "uint256",
          "name": "tokenId",
          "type": "uint256"
        }
      ],
      "name": "toggleActive",
      "outputs": [],
      "stateMutability": "nonpayable",
      "type": "function"
    },
    {
      "inputs": [
        {
          "internalType": "address",
          "name": "newOwner",
          "type": "address"
        }
      ],
      "name": "transferOwnership",
      "outputs": [],
      "stateMutability": "nonpayable",
      "type": "function"
    },
    {
      "inputs": [
        {
          "internalType": "uint256",
          "name": "tokenId",
          "type": "uint256"
        },
        {
          "internalType": "string",
          "name": "name",
          "type": "string"
        },
        {
          "internalType": "string",
          "name": "description",
          "type": "string"
        },
        {
          "internalType": "uint256",
          "name": "mintPrice",
          "type": "uint256"
        },
        {
          "internalType": "bool",
          "name": "allowPublicMint",
          "type": "bool"
        }
      ],
      "name": "updateAgentInfo",
      "outputs": [],
      "stateMutability": "nonpayable",
      "type": "function"
    },
    {
      "inputs": [
        {
          "internalType": "uint256",
          "name": "tokenId",
          "type": "uint256"
        },
        {
          "internalType": "uint256",
          "name": "newSupply",
          "type": "uint256"
        }
      ],
      "name": "updateSupply",
      "outputs": [],
      "stateMutability": "nonpayable",
      "type": "function"
    },
    {
      "inputs": [
        {
          "internalType": "string",
          "name": "",
          "type": "string"
        }
      ],
      "name": "usedHashes",
      "outputs": [
        {
          "internalType": "bool",
          "name": "",
          "type": "bool"
        }
      ],
      "stateMutability": "view",
      "type": "function"
    }
  ],
  "bytecode": "0x608060405234801561001057600080fd5b5061001a3361001f565b61006f565b600080546001600160a01b038381166001600160a01b0319831681178455604051919092169283917f8be0079c531659141344cd1fd0a4f28419497f9722a3daafe3b4186f6b6457e09190a35050565b611b598061007e6000396000f3fe608060405234801561001057600080fd5b50600436106101375760003560e01c80639e2dcbfd116100b8578063be20e44c1161007c578063be20e44c1461035b578063cbd8e12f14610380578063d270e7ab14610393578063e81baaaf146103a6578063f2fde38b146103c6578063f6d62d7e146103d957600080fd5b80639e2dcbfd146102765780639f783a3214610289578063ad7dafcf146102f8578063af87e0861461030b578063bd1f5f311461032d57600080fd5b8063715018a6116100ff578063715018a6146101cc5780637340b154146101d45780637a6e9514146101f55780638da5cb5b146102085780639b99abcb1461022d57600080fd5b806315e318c11461013c57806324adafcc1461016457806329d29cb3146101795780632d279523146101995780633ded33bc146101b9575b600080fd5b61014f61014a366004611366565b610404565b60405190151581526020015b60405180910390f35b6101776101723660046113b8565b61042f565b005b61018c6101873660046114f0565b610675565b60405161015b9190611559565b6101ac6101a73660046115bb565b610761565b60405161015b91906115dd565b6101776101c736600461160e565b61081a565b610177610844565b6101e76101e2366004611629565b610858565b60405190815260200161015b565b610177610203366004611653565b610889565b6000546001600160a01b03165b6040516001600160a01b03909116815260200161015b565b61025b61023b3660046114f0565b600260208190526000918252604090912080546001820154919092015483565b6040805193845260208401929092529082015260600161015b565b6101776102843660046115bb565b610939565b6102cc6102973660046114f0565b600360208190526000918252604090912080546001820154600283015492909301549092919060ff8082169161010090041685565b60408051958652602086019490945292840191909152151560608301521515608082015260a00161015b565b610177610306366004611722565b610978565b61031e6103193660046114f0565b610a1e565b60405161015b939291906117aa565b61014f61033b366004611366565b805160208183018101805160068252928201919093012091525460ff1681565b61036e6103693660046114f0565b610dc5565b60405161015b969594939291906118a6565b61017761038e3660046114f0565b611023565b600854610215906001600160a01b031681565b6103b96103b436600461160e565b611071565b60405161015b9190611912565b6101776103d436600461160e565b6110dd565b6101e76103e7366004611366565b805160208183018101805160078252928201919093012091525481565b60006006826040516104169190611956565b9081526040519081900360200190205460ff1692915050565b6008546001600160a01b031633146104625760405162461bcd60e51b815260040161045990611972565b60405180910390fd5b6040805160c08101825283518152602080850151818301528483015182840152606080860151908301523260808301524260a08301526000868152600190915291909120815181906104b49082611a26565b50602082015160018201906104c99082611a26565b50604082015160028201906104de9082611a26565b50606082015160038201906104f39082611a26565b506080828101516004830180546001600160a01b0319166001600160a01b0390921691909117905560a092830151600590920191909155604080516060808201835286840151825286850151602080840191825260c089015184860190815260008b815260028084528782209651875593516001878101919091559151958401959095558551978801865260e08a01518852878201898152610100808c01518a8901908152958a018381526101208d01511515998b01998a528d88526003948590529688902099518a559051898301559351928801929092559251959092018054945161ffff1990951695151561ff00191695909517931515029290921790925583820151915190916006916106099190611956565b90815260408051918290036020018220805493151560ff199094169390931790925590830151849160079161063d91611956565b908152604080516020928190038301902092909255326000908152600582529182208054600181018255908352912001929092555050565b606060046000838152602001908152602001600020805480602002602001604051908101604052809291908181526020016000905b828210156107565783829060005260206000200180546106c99061199e565b80601f01602080910402602001604051908101604052809291908181526020018280546106f59061199e565b80156107425780601f1061071757610100808354040283529160200191610742565b820191906000526020600020905b81548152906001019060200180831161072557829003601f168201915b5050505050815260200190600101906106aa565b505050509050919050565b6004602052816000526040600020818154811061077d57600080fd5b906000526020600020016000915091505080546107999061199e565b80601f01602080910402602001604051908101604052809291908181526020018280546107c59061199e565b80156108125780601f106107e757610100808354040283529160200191610812565b820191906000526020600020905b8154815290600101906020018083116107f557829003601f168201915b505050505081565b610822611156565b600880546001600160a01b0319166001600160a01b0392909216919091179055565b61084c611156565b61085660006111b0565b565b6005602052816000526040600020818154811061087457600080fd5b90600052602060002001600091509150505481565b6008546001600160a01b031633146108b35760405162461bcd60e51b815260040161045990611972565b60008281526004602052604081206108ca91611200565b60005b815181101561093457600083815260046020526040902082518390839081106108f8576108f8611ae6565b602090810291909101810151825460018101845560009384529190922001906109219082611a26565b508061092c81611afc565b9150506108cd565b505050565b6008546001600160a01b031633146109635760405162461bcd60e51b815260040161045990611972565b60009182526003602052604090912060010155565b6008546001600160a01b031633146109a25760405162461bcd60e51b815260040161045990611972565b8351156109c35760008581526001602052604090206109c18582611a26565b505b8251156109e8576000858152600160208190526040909120016109e68482611a26565b505b60009485526003602081905260409095206002810192909255930180549315156101000261ff0019909416939093179092555050565b610a606040518060c001604052806060815260200160608152602001606081526020016060815260200160006001600160a01b03168152602001600081525090565b610a8460405180606001604052806000815260200160008152602001600081525090565b610aba6040518060a001604052806000815260200160008152602001600081526020016000151581526020016000151581525090565b600084815260016020908152604080832060028352818420600390935292819020815160c081019092528354909190849082908290610af89061199e565b80601f0160208091040260200160405190810160405280929190818152602001828054610b249061199e565b8015610b715780601f10610b4657610100808354040283529160200191610b71565b820191906000526020600020905b815481529060010190602001808311610b5457829003601f168201915b50505050508152602001600182018054610b8a9061199e565b80601f0160208091040260200160405190810160405280929190818152602001828054610bb69061199e565b8015610c035780601f10610bd857610100808354040283529160200191610c03565b820191906000526020600020905b815481529060010190602001808311610be657829003601f168201915b50505050508152602001600282018054610c1c9061199e565b80601f0160208091040260200160405190810160405280929190818152602001828054610c489061199e565b8015610c955780601f10610c6a57610100808354040283529160200191610c95565b820191906000526020600020905b815481529060010190602001808311610c7857829003601f168201915b50505050508152602001600382018054610cae9061199e565b80601f0160208091040260200160405190810160405280929190818152602001828054610cda9061199e565b8015610d275780601f10610cfc57610100808354040283529160200191610d27565b820191906000526020600020905b815481529060010190602001808311610d0a57829003601f168201915b505050918352505060048201546001600160a01b0316602080830191909152600590920154604091820152805160608082018352865482526001808801548386015260029788015483850152835160a081018552875481529087015494810194909452958501549183019190915260039093015460ff8082161515958301959095526101009004909316151560808401529790965090945092505050565b600160205260009081526040902080548190610de09061199e565b80601f0160208091040260200160405190810160405280929190818152602001828054610e0c9061199e565b8015610e595780601f10610e2e57610100808354040283529160200191610e59565b820191906000526020600020905b815481529060010190602001808311610e3c57829003601f168201915b505050505090806001018054610e6e9061199e565b80601f0160208091040260200160405190810160405280929190818152602001828054610e9a9061199e565b8015610ee75780601f10610ebc57610100808354040283529160200191610ee7565b820191906000526020600020905b815481529060010190602001808311610eca57829003601f168201915b505050505090806002018054610efc9061199e565b80601f0160208091040260200160405190810160405280929190818152602001828054610f289061199e565b8015610f755780601f10610f4a57610100808354040283529160200191610f75565b820191906000526020600020905b815481529060010190602001808311610f5857829003601f168201915b505050505090806003018054610f8a9061199e565b80601f0160208091040260200160405190810160405280929190818152602001828054610fb69061199e565b80156110035780601f10610fd857610100808354040283529160200191611003565b820191906000526020600020905b815481529060010190602001808311610fe657829003601f168201915b50505050600483015460059093015491926001600160a01b031691905086565b6008546001600160a01b0316331461104d5760405162461bcd60e51b815260040161045990611972565b600090815260036020819052604090912001805460ff19811660ff90911615179055565b6001600160a01b0381166000908152600560209081526040918290208054835181840281018401909452808452606093928301828280156110d157602002820191906000526020600020905b8154815260200190600101908083116110bd575b50505050509050919050565b6110e5611156565b6001600160a01b03811661114a5760405162461bcd60e51b815260206004820152602660248201527f4f776e61626c653a206e6577206f776e657220697320746865207a65726f206160448201526564647265737360d01b6064820152608401610459565b611153816111b0565b50565b6000546001600160a01b031633146108565760405162461bcd60e51b815260206004820181905260248201527f4f776e61626c653a2063616c6c6572206973206e6f7420746865206f776e65726044820152606401610459565b600080546001600160a01b038381166001600160a01b0319831681178455604051919092169283917f8be0079c531659141344cd1fd0a4f28419497f9722a3daafe3b4186f6b6457e09190a35050565b508054600082559060005260206000209081019061115391905b8082111561123757600061122e828261123b565b5060010161121a565b5090565b5080546112479061199e565b6000825580601f10611257575050565b601f01602090049060005260206000209081019061115391905b808211156112375760008155600101611271565b634e487b7160e01b600052604160045260246000fd5b604051610140810167ffffffffffffffff811182821017156112bf576112bf611285565b60405290565b604051601f8201601f1916810167ffffffffffffffff811182821017156112ee576112ee611285565b604052919050565b600082601f83011261130757600080fd5b813567ffffffffffffffff81111561132157611321611285565b611334601f8201601f19166020016112c5565b81815284602083860101111561134957600080fd5b816020850160208301376000918101602001919091529392505050565b60006020828403121561137857600080fd5b813567ffffffffffffffff81111561138f57600080fd5b61139b848285016112f6565b949350505050565b803580151581146113b357600080fd5b919050565b6000806000606084860312156113cd57600080fd5b83359250602084013567ffffffffffffffff808211156113ec57600080fd5b90850190610140828803121561140157600080fd5b61140961129b565b82358281111561141857600080fd5b611424898286016112f6565b82525060208301358281111561143957600080fd5b611445898286016112f6565b60208301525060408301358281111561145d57600080fd5b611469898286016112f6565b60408301525060608301358281111561148157600080fd5b61148d898286016112f6565b6060830152506080830135608082015260a083013560a082015260c083013560c082015260e083013560e08201526101009150818301358282015261012091506114d88284016113a3565b82820152809450505050604084013590509250925092565b60006020828403121561150257600080fd5b5035919050565b60005b8381101561152457818101518382015260200161150c565b50506000910152565b60008151808452611545816020860160208601611509565b601f01601f19169290920160200192915050565b6000602080830181845280855180835260408601915060408160051b870101925083870160005b828110156115ae57603f1988860301845261159c85835161152d565b94509285019290850190600101611580565b5092979650505050505050565b600080604083850312156115ce57600080fd5b50508035926020909101359150565b6020815260006115f0602083018461152d565b9392505050565b80356001600160a01b03811681146113b357600080fd5b60006020828403121561162057600080fd5b6115f0826115f7565b6000806040838503121561163c57600080fd5b611645836115f7565b946020939093013593505050565b6000806040838503121561166657600080fd5b8235915060208084013567ffffffffffffffff8082111561168657600080fd5b818601915086601f83011261169a57600080fd5b8135818111156116ac576116ac611285565b8060051b6116bb8582016112c5565b918252838101850191858101908a8411156116d557600080fd5b86860192505b83831015611711578235858111156116f35760008081fd5b6117018c89838a01016112f6565b83525091860191908601906116db565b809750505050505050509250929050565b600080600080600060a0868803121561173a57600080fd5b85359450602086013567ffffffffffffffff8082111561175957600080fd5b61176589838a016112f6565b9550604088013591508082111561177b57600080fd5b50611788888289016112f6565b9350506060860135915061179e608087016113a3565b90509295509295909350565b6000610120808352855160c0828501526117c86101e085018261152d565b915050602086015161011f1980858403016101408601526117e9838361152d565b9250604088015191508085840301610160860152611807838361152d565b925060608801519150808584030161018086015250611826828261152d565b60808801516001600160a01b03166101a086015260a08801516101c0860152925061186b91505060208301858051825260208082015190830152604090810151910152565b8251608083810191909152602084015160a0840152604084015160c08401526060840151151560e0840152830151151561010083015261139b565b60c0815260006118b960c083018961152d565b82810360208401526118cb818961152d565b905082810360408401526118df818861152d565b905082810360608401526118f3818761152d565b6001600160a01b03959095166080840152505060a00152949350505050565b6020808252825182820181905260009190848201906040850190845b8181101561194a5783518352928401929184019160010161192e565b50909695505050505050565b60008251611968818460208701611509565b9190910192915050565b60208082526012908201527113db9b1e481b585a5b8818dbdb9d1c9858dd60721b604082015260600190565b600181811c908216806119b257607f821691505b6020821081036119d257634e487b7160e01b600052602260045260246000fd5b50919050565b601f82111561093457600081815260208120601f850160051c810160208610156119ff5750805b601f850160051c820191505b81811015611a1e57828155600101611a0b565b505050505050565b815167ffffffffffffffff811115611a4057611a40611285565b611a5481611a4e845461199e565b846119d8565b602080601f831160018114611a895760008415611a715750858301515b600019600386901b1c1916600185901b178555611a1e565b600085815260208120601f198616915b82811015611ab857888601518255948401946001909101908401611a99565b5085821015611ad65787850151600019600388901b60f8161c191681555b5050505050600190811b01905550565b634e487b7160e01b600052603260045260246000fd5b600060018201611b1c57634e487b7160e01b600052601160045260246000fd5b506001019056fea264697066735822122086db78f8cfe19949d4360dae1c672fc6d625a3b12d1b6aa19c6c40a18af6d59e64736f6c63430008130033",
  "linkReferences": {},
  "deployedLinkReferences": {}
}